{
    "contractName": "myToken",
    "abi": [
        {
            "inputs": [
                {
                    "internalType": "address",
                    "name": "",
                    "type": "address"
                }
            ],
            "name": "balance",
            "outputs": [
                {
                    "internalType": "uint256",
                    "name": "",
                    "type": "uint256"
                }
            ],
            "stateMutability": "view",
            "type": "function"
        },
        {
            "inputs": [
                {
                    "internalType": "address",
                    "name": "_addr",
                    "type": "address"
                },
                {
                    "internalType": "uint256",
                    "name": "_value",
                    "type": "uint256"
                }
            ],
            "name": "brun",
            "outputs": [],
            "stateMutability": "nonpayable",
            "type": "function"
        },
        {
            "inputs": [
                {
                    "internalType": "address",
                    "name": "_addr",
                    "type": "address"
                },
                {
                    "internalType": "uint256",
                    "name": "_value",
                    "type": "uint256"
                }
            ],
            "name": "mint",
            "outputs": [],
            "stateMutability": "nonpayable",
            "type": "function"
        },
        {
            "inputs": [],
            "name": "tokenAbbrv",
            "outputs": [
                {
                    "internalType": "string",
                    "name": "",
                    "type": "string"
                }
            ],
            "stateMutability": "view",
            "type": "function"
        },
        {
            "inputs": [],
            "name": "tokenName",
            "outputs": [
                {
                    "internalType": "string",
                    "name": "",
                    "type": "string"
                }
            ],
            "stateMutability": "view",
            "type": "function"
        },
        {
            "inputs": [],
            "name": "totalSupply",
            "outputs": [
                {
                    "internalType": "uint256",
                    "name": "",
                    "type": "uint256"
                }
            ],
            "stateMutability": "view",
            "type": "function"
        }
    ],
    "bytecode": "60c0604052600460809081526316995bdb60e21b60a0526000906100239082610101565b50604080518082019091526002815261169b60f21b602082015260019061004a9082610101565b50600060025534801561005c57600080fd5b506101c0565b634e487b7160e01b600052604160045260246000fd5b600181811c9082168061008c57607f821691505b6020821081036100ac57634e487b7160e01b600052602260045260246000fd5b50919050565b601f8211156100fc57600081815260208120601f850160051c810160208610156100d95750805b601f850160051c820191505b818110156100f8578281556001016100e5565b5050505b505050565b81516001600160401b0381111561011a5761011a610062565b61012e816101288454610078565b846100b2565b602080601f831160018114610163576000841561014b5750858301515b600019600386901b1c1916600185901b1785556100f8565b600085815260208120601f198616915b8281101561019257888601518255948401946001909101908401610173565b50858210156101b05787850151600019600388901b60f8161c191681555b5050505050600190811b01905550565b610392806101cf6000396000f3fe608060405234801561001057600080fd5b50600436106100625760003560e01c80630888485d1461006757806318160ddd1461007c57806340c10f19146100985780636c02a931146100ab5780637a8ff07d146100c0578063e3d670d7146100c8575b600080fd5b61007a610075366004610246565b6100e8565b005b61008560025481565b6040519081526020015b60405180910390f35b61007a6100a6366004610246565b610150565b6100b361018f565b60405161008f9190610270565b6100b361021d565b6100856100d63660046102be565b60036020526000908152604090205481565b6001600160a01b038216600090815260036020526040902054811161014c57806002600082825461011991906102f6565b90915550506001600160a01b038216600090815260036020526040812080548392906101469084906102f6565b90915550505b5050565b8060026000828254610162919061030f565b90915550506001600160a01b0382166000908152600360205260408120805483929061014690849061030f565b6000805461019c90610322565b80601f01602080910402602001604051908101604052809291908181526020018280546101c890610322565b80156102155780601f106101ea57610100808354040283529160200191610215565b820191906000526020600020905b8154815290600101906020018083116101f857829003601f168201915b505050505081565b6001805461019c90610322565b80356001600160a01b038116811461024157600080fd5b919050565b6000806040838503121561025957600080fd5b6102628361022a565b946020939093013593505050565b600060208083528351808285015260005b8181101561029d57858101830151858201604001528201610281565b506000604082860101526040601f19601f8301168501019250505092915050565b6000602082840312156102d057600080fd5b6102d98261022a565b9392505050565b634e487b7160e01b600052601160045260246000fd5b81810381811115610309576103096102e0565b92915050565b80820180821115610309576103096102e0565b600181811c9082168061033657607f821691505b60208210810361035657634e487b7160e01b600052602260045260246000fd5b5091905056fea264697066735822122076c2c37743a982378d6d50de3220e43d8afb6ceddf5ba1806a9c97b8426ca4a364736f6c63430008130033",
    "sourcePath": "/workspaces/Metacrafter_ETHProof_project/MyToken.sol",
    "compiler": {
        "name": "solc",
        "version": "0.8.19+commit.7dd6d404"
    },
    "functionHashes": {
        "balance(address)": "e3d670d7",
        "brun(address,uint256)": "0888485d",
        "mint(address,uint256)": "40c10f19",
        "tokenAbbrv()": "7a8ff07d",
        "tokenName()": "6c02a931",
        "totalSupply()": "18160ddd"
    },
    "gasEstimates": {
        "creation": {
            "codeDepositCost": "182800",
            "executionCost": "infinite",
            "totalCost": "infinite"
        },
        "external": {
            "balance(address)": "2596",
            "brun(address,uint256)": "infinite",
            "mint(address,uint256)": "infinite",
            "tokenAbbrv()": "infinite",
            "tokenName()": "infinite",
            "totalSupply()": "2284"
        }
    }
}